{
  "_format": "hh-sol-artifact-1",
  "contractName": "Counter",
  "sourceName": "contracts/counter.sol",
  "abi": [
    {
      "anonymous": false,
      "inputs": [
        {
          "indexed": false,
          "internalType": "uint256",
          "name": "newCount",
          "type": "uint256"
        }
      ],
      "name": "CountIncremented",
      "type": "event"
    },
    {
      "inputs": [],
      "name": "count",
      "outputs": [
        {
          "internalType": "uint256",
          "name": "",
          "type": "uint256"
        }
      ],
      "stateMutability": "view",
      "type": "function"
    },
    {
      "inputs": [],
      "name": "get",
      "outputs": [
        {
          "internalType": "uint256",
          "name": "",
          "type": "uint256"
        }
      ],
      "stateMutability": "view",
      "type": "function"
    },
    {
      "inputs": [],
      "name": "increment",
      "outputs": [],
      "stateMutability": "nonpayable",
      "type": "function"
    }
  ],
  "bytecode": "0x6080604052348015600f57600080fd5b506101bc8061001f6000396000f3fe608060405234801561001057600080fd5b50600436106100415760003560e01c806306661abd146100465780636d4ce63c14610064578063d09de08a14610082575b600080fd5b61004e61008c565b60405161005b9190610108565b60405180910390f35b61006c610092565b6040516100799190610108565b60405180910390f35b61008a61009b565b005b60005481565b60008054905090565b60016000808282546100ad9190610152565b925050819055507f420680a649b45cbb7e97b24365d8ed81598dce543f2a2014d48fe328aa47e8bb6000546040516100e59190610108565b60405180910390a1565b6000819050919050565b610102816100ef565b82525050565b600060208201905061011d60008301846100f9565b92915050565b7f4e487b7100000000000000000000000000000000000000000000000000000000600052601160045260246000fd5b600061015d826100ef565b9150610168836100ef565b92508282019050808211156101805761017f610123565b5b9291505056fea2646970667358221220b10bd331b5a6fb4de78badeaa6a5470c965a9a111fd85bbdcd3ff91a9393221b64736f6c634300081c0033",
  "linkReferences": {},
  "deployedLinkReferences": {}
}